:020000040800F2
:10000000400C0020010A0008D5070008D7070008A7
:10001000DB070008DF070008E30700080000000016
:10002000000000000000000000000000E7070008DA
:10003000E907000800000000EB070008ED070008D2
:100040001B0A00081B0A00081B0A00081B0A0008FC
:100050001B0A00081B0A00081B0A00081B0A0008EC
:100060001B0A00081B0A00081B0A00081B0A0008DC
:100070001B0A00081B0A00081B0A00081B0A0008CC
:100080001B0A00081B0A00081B0A00081B0A0008BC
:100090001B0A00081B0A00081B0A00081B0A0008AC
:1000A0001B0A00081B0A00081B0A00081B0A00089C
:1000B0001B0A00081B0A00081B0A00081B0A00088C
:1000C0001B0A00081B0A00081B0A00081B0A00087C
:1000D0001B0A0008CD2600081B0A00081B0A00089E
:1000E0001B0A00081B0A00081B0A00081B0A00085C
:1000F000793000081B0A00081B0A00081B0A0008C8
:100100001B0A00081B0A00081B0A00081B0A00083B
:100110001B0A00081B0A00081B0A00081B0A00082B
:100120001B0A00081B0A00081B0A00081B0A00081B
:100130001B0A00081B0A00081B0A00081B0A00080B
:100140001B0A00081B0A00081B0A00081B0A0008FB
:100150001B0A00081B0A00081B0A00081B0A0008EB
:100160001B0A00081B0A00081B0A00081B0A0008DB
:100170001B0A00081B0A00081B0A00081B0A0008CB
:100180001B0A00081B0A000800F002F800F03CF807
:100190000AA090E8000C82448344AAF10107DA45E2
:1001A00001D100F031F8AFF2090EBAE80F0013F0F8
:1001B000010F18BFFB1A43F001031847BC6500008C
:1001C000DC650000103A24BF78C878C1FAD852071D
:1001D00024BF30C830C144BF04680C6070470000C1
:1001E0000023002400250026103A28BF78C1FBD840
:1001F000520728BF30C148BF0B6070471FB504F0DD
:1002000011FE1FBD10B510BD03F0AAF81146FFF78F
:10021000F5FF00F009F803F0C8F803B4FFF7F2FFA8
:1002200003BC02F0F3F900002DED0C8B82B000242A
:10023000A82002F069F94FF4E13002F0F5F94FF42B
:10024000A06000F0FDFBA72140F2E73002F0A0FE25
:1002500002F07EFE02F07EFB02F040FB02F0CEFADE
:1002600002F0ABFD02F078FA01224FF4FA714FF47C
:10027000C86002F077FF9CE2002002F0DDFAF94945
:10028000086008460068032855D101240020F6497B
:10029000086012E0F548F44A1268815CF44802F004
:1002A00023F800BF4021F24802F0CEF80128F9D12E
:1002B000ED480068401CEC490860EB4800681128D4
:1002C000E8DB4FF4FA7002F081F90020E64908609B
:1002D00012E0E848E44A1268815CE54802F004F85C
:1002E00000BF4021E24802F0AFF80128F9D1DE4812
:1002F0000068401CDC490860DB4800681128E8DB26
:100300000020D949086012E0DB48D74A1268815CB6
:10031000D74801F0E9FF00BF4021D54802F094F82A
:100320000128F9D1D0480068401CCF490860CE4868
:1003300000681D28E8DBCB480068012800D10224B2
:10034000C8480068022800D10324012C7ED1CB4884
:10035000008800F40040002879D0C8480088C0F325
:100360000D00C74908600020BF4908600FE0C5487C
:10037000BD490968405C3A2804D1BB480068401C6C
:10038000C1490860B8480068401CB7490860B648D1
:1003900000680F28EBDBBA480068401EB2490860CD
:1003A00039E0BA48006804F0E0F941EC1D0BB0EE0A
:1003B0004D1AF0EE6D1A9FEDB60B03F019F8B0EE82
:1003C00040BAF0EE60BAAF49A74A1268885C04F000
:1003D000E3F941EC1C0B53EC1B2B04F02DFA41EC20
:1003E000190BAD48006804F0C0F941EC1A0B53EC4E
:1003F000192B03F077FF41EC180B04F087F9A6499D
:100400000860A2480068401CA04908609E48006837
:10041000401E9D490860944800689B4909688842CD
:10042000BFDC0020994908609449088095489649A6
:100430000968405C53280CD19748006897490860C8
:100440000846006802F03AFF954901E06CE010E0D0
:1004500008608C488C490968405C412809D18E4865
:100460000068904908600846006802F041FF8E4924
:10047000086000208849086002F001FB0C238BA271
:100480000021084602F06AFC0C20082300908348F3
:1004900000210268242002F0D1FB0C2385A2002158
:1004A000602002F05BFC0C2384A21946002002F0BD
:1004B00055FC0C20082300907A480C210268242067
:1004C00002F0BCFB7848006868B17548006850B914
:1004D00001224FF4FA717448006802F043FE4FF4B1
:1004E000FA7002F073F86E48006860B16E480068F8
:1004F00048B901226A480168724802F033FE4FF49D
:10050000FA7002F063F86848006868B164480068EF
:1005100050B10122624801686348006802F022FE7F
:100520004FF4FA7002F052F8022C70D100204E49BC
:1005300008602FE04C480068584908600846006889
:1005400002F0BCFE5649086002F099FA0C2357A24B
:100550000021084602F002FC0C20082300904F48BE
:1005600000210268242002F069FB0C2351A2002123
:10057000602002F0F3FB012249480168524802F072
:10058000F1FD4FF47A7002F021F837480068401C02
:1005900035490860344800686428CBDB324800687D
:1005A000642834DB2FE0304800683C490860084686
:1005B000006802F083FE3A49086002F060FA0C23FA
:1005C0003AA20021084602F0C9FB0C200823009043
:1005D000324800210268242002F030FB0C2335A2AF
:1005E0000021602002F0BAFB01222D480168364844
:1005F00002F0B8FD4FF47A7001F0E8FF1A48006885
:10060000401E19490860184800680028CBDC032CFC
:100610007ED11A48008800F4004028B117480088AD
:10062000C0F30D001649086000200F4908600FE074
:1006300014480D490968405C3A2804D10A4800680A
:10064000401C1149086008480068401C06490860C1
:10065000054800680F28EBDB09480068401E024986
:1006600008606FE000000020040000202800002047
:1006700000100140390000204A00002094000020B2
:100680002400002018010020080000200C00002099
:100690000000000000002440100000201C0000208A
:1006A0001400002020000020180000205370656511
:1006B000643A0000722F6D696E000000416E676C35
:1006C000653A0000A086010040420F0039480068EA
:1006D00004F04BF841EC1D0BB0EE4D1AF0EE6D1A24
:1006E0001FED150B02F084FEB0EE40BAF0EE60BADA
:1006F0003149324A1268885C04F04EF841EC1C0B18
:1007000053EC1B2B04F098F841EC190B2C4800E03B
:100710004FE0006804F029F841EC1A0B53EC192B58
:1007200003F0E0FD41EC180B03F0F0FF24490860F2
:1007300020480068401C1F49086022480068401E8D
:10074000204908601D4800681E4909688842BDDCD0
:100750000020184908601C49088017481949096891
:10076000405C412809D116480068184908600846CD
:10077000006802F0BDFD16490860002010490860BD
:1007800002F07DF90C23AFF2CC021946002002F0F2
:10079000E5FA0C20082300900C480C210268242064
:1007A00002F04CFA01224FF4FA710948006802F095
:1007B000D9FC61E50C000020180100200400002095
:1007C00010000020080000209400002020000020DD
:1007D00018000020704700BFFEE700BFFEE700BF23
:1007E000FEE700BFFEE770477047704770470000A4
:1007F0000CB50020019000907648006840F48030ED
:100800007449086000BF7348006800F4003000902D
:100810000198401C0190009818B90198B0F5A04FBC
:10082000F1D16C48006800F4003010B10120009054
:1008300001E0002000900098012846D16548403032
:10084000006840F0805063494031086062480068A9
:1008500040F44040604908605E48083000685D49E7
:10086000083108600846006840F400400860084607
:10087000006840F4A05008605848091F0860081F2D
:10088000006840F08070091F086000BF5148006890
:1008900000F000700028F9D040F20570504908605F
:1008A0004C480830006820F003004A4908310860CD
:1008B0000846006840F00200086000BF4548083064
:1008C000006800F00C000828F8D10CBD10B54548B0
:1008D000006840F47000434908603E48006840F0FA
:1008E00001003C49086000203A4908310860394855
:1008F00000683D490840374908603C48091D0860C8
:10090000081F006820F48020091F0860002031497A
:100910000C310860FFF76CFF4FF0006031498039FF
:10092000086010BD70B500200022022300240221BF
:10093000284D08352D6805F00C0020B1042806D09C
:10094000082834D107E02A4D2A4E356033E02A4D7D
:10095000284E35602FE01F4D2D1D2D68C5F38054A6
:100960001C4D2D1D2D6805F03F0154B1224DB5FBE6
:10097000F1F5184E361D3668C6F3881605FB06F2EB
:1009800009E01B4DB5FBF1F5124E361D3668C6F376
:10099000881605FB06F20F4D2D1D2D68C5F3014588
:1009A0006D1C6B00B2FBF3F5124E356003E0104D89
:1009B000104E356000BF00BF064D08352D68C5F3E9
:1009C00003150E4E705D0B4D2D68C540094E356008
:1009D00070BD00000038024000700040085440071D
:1009E000003C024088ED00E0FFFFF6FE10300024DE
:1009F0000024F4006800002000127A006C0000203F
:100A00000948804709480047FEE7FEE7FEE7FEE7A2
:100A1000FEE7FEE7FEE7FEE7FEE7FEE704480549DE
:100A2000054A064B70470000CD0800088901000800
:100A300040060020400C0020400800204008002014
:100A400032490143324A1160704770B500210023DA
:100A50000F22C4781CB32E4C246804F4E064C4F55F
:100A6000E064C4F30721C1F10404E3B20A4144780D
:100A70009C40E1B28478144021430C07210E254CA0
:100A800005786155047804F01F050124AC40057811
:100A90006D11AD0005F1E025C5F8004109E00478CD
:100AA00004F01F050124AC401B4D0678761145F873
:100AB000264070BD194A0A400243154B1B1F1A609D
:100AC000704739B1124A121D12680243104B1B1DA8
:100AD0001A6006E00E4A121D126882430C4B1B1D61
:100AE0001A607047042808D14FF0E021096941F0ED
:100AF00004014FF0E022116107E04FF0E0210969A5
:100B000021F004014FF0E022116170470000FA0566
:100B10000CED00E000E400E080E100E080FFFF1F5A
:100B200010B504469848844208D10121084600F0D7
:100B300086FB0021012000F082FB76E0934884428E
:100B400008D10121022000F07AFB0021022000F0F0
:100B500076FB6AE08E48844208D10121042000F02F
:100B60006EFB0021042000F06AFB5EE089488442AD
:100B700008D10121082000F062FB0021082000F0CC
:100B80005EFB52E08448844208D10121102000F02D
:100B900056FB0021102000F052FB46E07F488442C3
:100BA00008D10121202000F04AFB0021202000F084
:100BB00046FB3AE07A48844208D10121402000F007
:100BC0003EFB0021402000F03AFB2EE075488442B5
:100BD00008D10121802000F032FB0021802000F0AC
:100BE0002EFB22E07048844208D10121801500F0DC
:100BF00026FB0021A01500F022FB16E06B48844282
:100C000008D10121401500F01AFB0021601500F009
:100C100016FB0AE06648844207D10121001500F066
:100C20000EFB0021201500F00AFB10BDF0B50A46AE
:100C300000210023002400BF3DE0012505FA01F357
:100C4000156805EA03049C4234D105684F00032669
:100C5000BE40B543056015794E00B5400668354382
:100C600005601579012D02D01579022D16D1856800
:100C70004F000326BE40B543856055794E00B54010
:100C8000866835438560456801268E40B5434560DA
:100C9000456896798E40B6B235434560C5684F00C9
:100CA0000326BE40B543C560D5794E00B540C66841
:100CB0003543C560491C1029BFD3F0BD4FF6FF7105
:100CC00001600021017141718171C171704708B5E6
:100CD0004FF480320092009A0A430092009AC26157
:100CE000C161009AC261C2690092C269009208BDE6
:100CF0000246002013690B400BB1012000E00020E8
:100D000070470146086980B2704702460020536967
:100D10000B400BB1012000E00020704701464869FC
:100D200080B2704701837047418370470AB10183E5
:100D300000E0418370474161704742694A40426127
:100D40007047F0B5002300244D07ED0E02FA05F3BD
:100D5000CE1000F1200555F826504E07F70E0F264D
:100D6000BE40B543CF1000F1200646F82750CE1004
:100D700000F1200555F8265045EA0304CE1000F195
:100D8000200545F82640F0BD000002400004024066
:100D900000080240000C0240001002400014024013
:100DA00000180240001C02400020024000240240C3
:100DB00000280240F948006840F00100F749086047
:100DC0000020F64908310860F4480068F4490840FA
:100DD000F2490860F348091D0860F348EF4984317F
:100DE0000860F0481038091D0860EC48006820F4DD
:100DF0008020EA4908600020E8490C310860E74992
:100E00008C31086070470021E44A921C1170114631
:100E10000870704710B501460022002300204A11D7
:100E2000012A02D1DD4C236808E0022A03D1DB4C01
:100E30007034236802E0D94C7434236801F01F0237
:100E4000012494401C400CB1012000E0002010BDA2
:100E500038B5002000900024002500BF3120FFF7A6
:100E6000D9FF05460098401C00900098B0F5A04FAF
:100E700001D0002DF2D03120FFF7CCFF08B10124C2
:100E800000E00024204638BD01460020C34A106817
:100E900020F0F80040EAC10010607047C3490860C4
:100EA00070470021BD4A703211701170012802D0C4
:100EB00004280AD104E00121B84A7032117005E01B
:100EC0000521B64A7032117000E000BF00BF7047C4
:100ED000B7490860704770B5049C41EA8215012645
:100EE000C6EB530645EA0645054345EA0465AB4EA5
:100EF000361D356070BDAD4908667047820142EA13
:100F00000172A64B84331A607047A84988667047FF
:100F100010B5830143EA016343EA02739F4C8834AE
:100F2000236010BDA14908677047A049C864704795
:100F300002460020994B0833186820F0EC6042EA22
:100F400001031843954B0833186070470246002090
:100F5000924B0833186820F0784042EA01031843A6
:100F60008E4B083318607047014600208B4A0832C8
:100F7000106820F00300084310607047874808306D
:100F8000006800F00C00704701460020834A0832D8
:100F9000106820F0F0000843106070470146002000
:100FA0007E4A0832106820F4E05008431060704711
:100FB00001460020794A0832106820F4604040EA77
:100FC000C10010607047F0B5002100220024022506
:100FD00000260223714F08373F6807F00C0121B14A
:100FE000042905D0082937D105E0724F076036E0A3
:100FF000714F076033E0694F3F1D3F68C7F380566C
:10100000664F3F1D3F6807F03F036EB16A4FB7FB65
:10101000F3F7DFF888C10CF1040CDCF800C0CCF366
:10102000881C07FB0CF40CE0624FB7FBF3F7DFF80A
:101030006CC10CF1040CDCF800C0CCF3881C07FB7D
:101040000CF4564F3F1D3F68C7F301477F1C7D00DE
:10105000B4FBF5F7076002E0564F076000BF00BF22
:101060004E4F08373F6807F0F0010909534F7A5C8B
:101070000768D7404760494F08373F6807F4E05199
:10108000890A4E4F7A5C4768D7408760434F0837DC
:101090003F6807F46041490B484F7A5C4768D74086
:1010A000C760F0BD002100F44072B2F5407F0AD164
:1010B0003A4A0832116821F4F811414A02401143BA
:1010C000364A08321160354A70321268C0F30B0399
:1010D0001A43324B70331A607047354944390860FF
:1010E0007047334940390860704736490860704797
:1010F00001460020294A8C32106820F01F004A1E49
:101100001043264A8C321060704701460020234A63
:101110008C32106820F4F8504A1E40EA02201F4A20
:101120008C3210607047014600201C4A8C321068D7
:1011300020F4401008431060704701460020174A11
:101140008C32106820F4400008431060704701465C
:101150000020124A8C32106820F44030084310609E
:10116000704719490860704739B10C4A303212682B
:1011700002430A4B30331A6006E0084A30321268E4
:101180008243064B30331A607047F9B1034A343258
:1011900012680243014B34331A601CE000380240ED
:1011A000FFFFF6EA10300024003000200000474224
:1011B000800E47420024F40000127A007C000020D8
:1011C000FFFCFF0F5C014742E01147428F4A126863
:1011D00082438E4B1A60704739B18C4A121D1268D7
:1011E00002438A4B1B1D1A6006E0884A121D1268D2
:1011F0008243864B1B1D1A60704739B1834A0C32FB
:1012000012680243814B0C331A6006E07F4A0C32AD
:10121000126882437D4B0C331A60704739B17B4AA8
:10122000103212680243794B10331A6006E0774A95
:10123000103212688243754B10331A60704739B10F
:10124000724A243A12680243704B243B1A6006E04B
:101250006E4A243A126882436C4B243B1A607047F2
:1012600039B16A4A203A12680243684B203B1A603F
:1012700006E0664A203A12688243644B203B1A60BB
:10128000704739B1614A1C3A126802435F4B1C3BFC
:101290001A6006E05D4A1C3A126882435B4B1C3BB5
:1012A0001A60704739B1594A143A12680243574BD1
:1012B000143B1A6006E0554A143A12688243534BB5
:1012C000143B1A60704739B1504A103A1268024311
:1012D0004E4B103B1A6006E04C4A103A12688243AB
:1012E0004A4B103B1A60704739B1484A1C321268A9
:1012F0000243464B1C331A6006E0444A1C32126813
:101300008243424B1C331A60704739B13F4A203246
:10131000126802433D4B20331A6006E03B4A2032FC
:1013200012688243394B20331A60704739B1374A0B
:10133000243212680243354B24331A6006E0334AE4
:10134000243212688243314B24331A60704739B11A
:101350002E4A2C32126802432C4B2C331A6006E0C2
:101360002A4A2C3212688243284B2C331A60704769
:1013700039B1264A303212680243244B30331A60A6
:1013800006E0224A303212688243204B30331A6022
:101390007047012808D11D493C31096841F0080116
:1013A0001A4A3C32116007E018493C31096821F0C3
:1013B0000801164A3C321160704739B1134A273A86
:1013C00012780243114B273B1A7006E00F4A273A66
:1013D000127882430D4B273B1A7070470B48403000
:1013E000006840F08070094940310860704701464C
:1013F0000020064A283A12680A400AB1012000E09B
:10140000002070470149263908707047343802407F
:1014100010B50446FE48844208D101210846FFF772
:1014200052FF00210120FFF74EFF9DE0B4F1804FF5
:1014300008D101210846FFF735FF00210120FFF701
:1014400031FF91E0F348844208D101210220FFF7E7
:1014500029FF00210220FFF725FF85E0EE488442A6
:1014600008D101210420FFF71DFF00210420FFF710
:1014700019FF79E0E948844208D101210820FFF7EB
:1014800011FF00210820FFF70DFF6DE0E4488442C2
:1014900008D101211020FFF705FF00211020FFF7E0
:1014A00001FF61E0DF48844208D101212020FFF7DD
:1014B000F9FE00212020FFF7F5FE55E0DA488442CE
:1014C00008D101210220FFF7FEFE00210220FFF7D4
:1014D000FAFE49E0D548844209D101210804FFF70A
:1014E000F2FE00214FF48030FFF7EDFE3CE0D048E3
:1014F000844209D101214804FFF7E5FE00214FF4A1
:101500000030FFF7E0FE2FE0CA48844209D10121F4
:101510008804FFF7D8FE00214FF48020FFF7D3FEA8
:1015200022E0C548844208D101214020FFF7BAFEDD
:1015300000214020FFF7B6FE16E0C048844208D1E3
:1015400001218020FFF7AEFE00218020FFF7AAFED8
:101550000AE0BB48844207D101218015FFF7A2FEB3
:101560000021A015FFF79EFE10BD00220288A84BA7
:1015700098420ED0AC4B98420BD0B0F1804F08D0BF
:10158000A44B984205D0A44B984202D0A34B98425A
:1015900004D14FF68F731A404B881A43A04B9842E0
:1015A00007D0A04B984204D04FF6FF431A400B8956
:1015B0001A4302804B68C3620B880385944B9842A0
:1015C00002D0994B984201D18B7A03860123838202
:1015D00070474FF0FF31416000210180018141805F
:1015E000817270470185828270470A460021018816
:1015F0004FF68F7319401143018070474162704765
:10160000C16270470146486A70470146088D7047BD
:1016100021B1028842F00202028004E002884FF603
:10162000FD731A400280704721B1028842F0040223
:10163000028004E002884FF6FB731A400280704774
:1016400021B1028842F08002028004E002884FF655
:101650007F731A400280704702884FF6F7731A4072
:10166000028002880A430280704702884FF6FF43D7
:101670001A40028002880A430280704721B1028822
:1016800042F00102028004E002884FF6FE731A4025
:101690000280704770B5002400220023058C4FF6AD
:1016A000FE7635400584028C8388048B4FF68F7557
:1016B0002C40B51E2C400D882C43751E2A408D8968
:1016C0002A434D882A43524DA84202D0564DA84283
:1016D00013D14FF6F7752A40CD892A434FF6FB7593
:1016E0002A408D882A434FF6FF652B404FF6FF5561
:1016F0002B400D8A2B434D8A2B43838004838D68B6
:101700004563028470BD70B5002400220023058C5F
:101710004FF6EF7635400584028C8388048B48F6BB
:10172000FF752C404FF6FF452C400D884FF6FF7695
:1017300006EA05252C434FF6DF752A408D8906EA17
:1017400005152A434D8806EA05152A43304DA8425F
:1017500002D0354DA8421DD14FF67F752A40CD8964
:101760004FF6FF7606EA05152A434FF6BF752A4065
:101770008D8806EA05152A434FF6FF352B404FF2B8
:10178000FF752B400D8A06EA85052B434D8A06EA34
:1017900085052B43838004838D688563028470BD37
:1017A00070B5002400220023058C4FF6FF663540FB
:1017B0000584028C8388848B4FF68F752C404FF6FE
:1017C000FC752C400D882C434FF6FF552A408D891F
:1017D0004FF6FF7606EA05252A434D8806EA0525D9
:1017E0002A430B4DA84202D00F4DA84238D14FF2E8
:1017F000FF752A40CD894FF6FF7606EA05252A4374
:101800004FF6FF352A408D8806EA05252A4319E060
:10181000000001400004004000080040000C0040AF
:10182000001000400014004000040140004001404E
:10183000004401400048014000180040001C0040E6
:10184000002000404EF6FF752B404DF6FF752B40F3
:101850000D8A06EA05152B434D8A06EA05152B432A
:10186000838084838D68C563028470BD70B5002257
:1018700000230024058C4EF6FF7635400584038C4A
:101880008488828B48F6FF752A404FF6FF452A4030
:101890000D884FF6FF7606EA05252A434DF6FF75BB
:1018A0002B408D8906EA05352B434D8806EA053520
:1018B0002B43FE4DA84202D0FD4DA84208D14BF665
:1018C000FF752C400D8A4FF6FF7606EA85152C43EE
:1018D000848082838D680564038470BD002101804B
:1018E0004180818081608181C18101824182704714
:1018F00070B50346002000241846183001258D409D
:10190000ACB21D8CA5431D8409B108290AD100EB96
:10191000610005684FF68F76354005600568154310
:1019200005600FE00D1FC5F34E052844056848F615
:10193000FF763540056005684FF6FF7606EA022619
:101940003543056070BD4163704781637047C16373
:101950007047016470470A460021018B4FF68F7370
:1019600019401143018370470A460021018B48F654
:10197000FF7319404FF6FF7303EA022319430183F3
:1019800070470A460021818B4FF68F73194011432F
:10199000818370470A460021818B48F6FF73194006
:1019A0004FF6FF7303EA02231943818370470A4607
:1019B0000021018B4FF6F7731940114301837047E3
:1019C0000A460021018B4FF2FF7319404FF6FF7357
:1019D00003EA02231943018370470A460021818BE1
:1019E0004FF6F77319401143818370470A4600216F
:1019F000818B4FF2FF7319404FF6FF7303EA022306
:101A00001943818370470A460021018B4FF6FB730F
:101A100019401143018370470A460021018B4FF69C
:101A2000FF3319404FF6FF7303EA02231943018382
:101A300070470A460021818B4FF6FB731940114312
:101A4000818370470A460021818B4FF6FF3319408E
:101A50004FF6FF7303EA02231943818370470A4656
:101A60000021018B4FF67F731940114301837047AA
:101A70000A460021018BC1F30E014FF6FF7303EA02
:101A800002231943018370470A460021818B4FF6D8
:101A90007F7319401143818370470A460021818B6F
:101AA000C1F30E014FF6FF7303EA0223194381834A
:101AB00070470A460021018C4FF6FD73194011430F
:101AC000018470470A460021018C4FF6F7731940D4
:101AD0001143018470470A460021018C4FF6DF73E1
:101AE00019404FF6FF7303EA02131943018470474C
:101AF0000A460021018C4FF67F7319404FF6FF73A1
:101B000003EA02131943018470470A460021018C3D
:101B10004FF6FF5319404FF6FF7303EA02231943B0
:101B2000018470470A460021018C4FF2FF7319406F
:101B30004FF6FF7303EA02231943018470470A46F4
:101B40000021018C4DF6FF7319404FF6FF7303EA35
:101B5000023319430184704730B5002301248C40BF
:101B6000A3B2048C9C430484048C02FA01F5ADB248
:101B70002C43048430BD30B5002304248C40A3B230
:101B8000048C9C430484048C02FA01F5ADB22C430E
:101B9000048430BD828B4FF2FF331A408283828BE4
:101BA0004FF6FF7303EA01231A4382837047F0B5AF
:101BB0000C461546002100220026078C4EF6FF7CBD
:101BC00007EA0C070784818B028C4FF6FF7707EA40
:101BD000043640F6FF4739404FF6FF7707EA0527FE
:101BE00039434FF6FF7707EA0337394345F6FF7766
:101BF0003A4046F480573A4381830284F0BD828B99
:101C00004FF6F3731A408283828B0A4382837047B4
:101C1000F0B50C461546002100220026078C4FF631
:101C2000FF6C07EA0C070784818B028C4FF6FF7765
:101C300007EA04264FF60C7739404FF6FF7707EA9C
:101C400003172F4339434FF2FF573A4046F480774A
:101C50003A4381830284F0BD028B4FF2FF331A4076
:101C60000283028B4FF6FF7303EA01231A430283B8
:101C70007047F0B50C461546002100220026078C5F
:101C80004FF6EF7C07EA0C070784018B028C4FF6B6
:101C9000FF7707EA041640F6FF4739404FF6FF7713
:101CA00007EA033739434FF6FF7703E000000140AE
:101CB0000004014007EA052739434FF65F773A40B1
:101CC00046F010073A4301830284F0BD028B4FF6C1
:101CD000F3731A400283028B0A4302837047F0B504
:101CE0000C46154600210022068C4FF6FE773E403A
:101CF0000684018B028C4FF60C7631407E1C06EA7E
:101D000003162E4331434FF6F576324044F0010678
:101D1000324301830284F0BD70B505460C4620882D
:101D200050B92389A28861882846FFF7D8FFE18847
:101D30002846FFF7CBFF25E0208804280AD1238915
:101D4000A28861882846FFF794FFE1882846FFF7BC
:101D500083FF17E0208808280AD12389A288618898
:101D60002846FFF755FFE1882846FFF748FF09E0BE
:101D70002389A28861882846FFF719FFE188284651
:101D8000FFF708FF70BD00210180418001218180A3
:101D90000021C180018170472DE9F04105460C46C4
:101DA00000260127608808B9022600E00026A088E6
:101DB000012801D1022700E001272088A0B923894A
:101DC000A28861882846FFF78AFFE1882846FFF746
:101DD0007DFF23893A4631462846FFF74AFFE188CE
:101DE0002846FFF739FF13E02389A2886188284637
:101DF000FFF73FFFE1882846FFF72EFF23893A4689
:101E000031462846FFF76BFFE1882846FFF75EFF63
:101E1000BDE8F0810146486B70470146886B70470A
:101E20000146C86B70470146086C70470A884B88AA
:101E30001A438B881A43CB881A430B891A434B8960
:101E40001A438B891A43A0F844207047002101806F
:101E500041808180C180018141818181704731B1A0
:101E6000B0F8442042F40042A0F8442005E0B0F865
:101E70004420C2F30E02A0F84420704721B18288AA
:101E800042F00402828004E082884FF6FB731A401D
:101E90008280704721B1828842F00102828004E092
:101EA00082884FF6FE731A40828070471AB1838988
:101EB0000B43838102E083898B4383817047818256
:101EC000704702460020138A0B400BB1012000E04E
:101ED00000207047CA430282704730B50246002096
:101EE00000230024158A05EA0103958905EA010407
:101EF00013B10CB1012000E0002030BDCA430282C2
:101F0000704741EA0203A0F8483070471AB183894C
:101F10000B43838102E083898B438381704721B126
:101F2000828842F00802828004E082884FF6F773CC
:101F30001A408280704701894FF6F8721140018182
:101F400070470A46002101894FF68F7319401143EB
:101F50000181704730B504460D4629462046FFF7FB
:101F6000F0FF208940F00700208130BD2DE9F041CD
:101F700004460D4616461F46602D06D13B460122FB
:101F800031462046FFF775FE05E03B46012231460B
:101F90002046FFF7A4FE29462046FFF7D2FF2089FE
:101FA00040F007002081BDE8F08130B50C460021EB
:101FB0000189C9B24FF6FF7505EA0325154325438C
:101FC0002943018130BD2DE9F04105460E461746F3
:101FD0009846002443463A4631462846FFF7E5FF37
:101FE0002C894FF6F870044044F007044FF68F70C8
:101FF000044044F070042C81BDE8F081F0B5044643
:102000000D4616461F463B46324629462046FFF7F8
:10201000CCFF208940F480402081F0BD82884FF6BB
:102020008F731A40828082880A43828070470289B7
:102030004FF6F8731A40028102890A430281704701
:1020400002894FF67F731A40028102890A43028196
:102050007047F0B50C4615461E46002100220023AD
:102060000189028B038C4FF6F877394021434FF6F4
:10207000FC473A4040F201173A434FF6DD773B40C8
:102080004FF6FF7707EA06172F433B430181028390
:102090000384F0BD21B1828842F08002828004E096
:1020A00082884FF67F731A4082807047A0F85010E4
:1020B0007047000010B50446FA48844208D1012157
:1020C0001020FFF700F900211020FFF7FCF857E07F
:1020D000F548844209D101214804FFF7E3F80021C3
:1020E0004FF40030FFF7DEF84AE0F048844209D1AF
:1020F00001218804FFF7D6F800214FF48020FFF774
:10210000D1F83DE0EA48844209D10121C804FFF733
:10211000C9F800214FF40020FFF7C4F830E0E5488B
:10212000844209D101210805FFF7BCF800214FF4D2
:102130008010FFF7B7F823E0DF48844208D101217F
:102140002020FFF7C0F800212020FFF7BCF817E09F
:10215000DA48844209D101218807FFF7A3F800215A
:102160004FF08040FFF79EF80AE0D548844207D13F
:1021700001214005FFF796F800216005FFF792F86E
:1021800010BD2DE9FF4705460E460024A14600BFBD
:10219000A046B08900B100BF2C8A24F44054F088D6
:1021A00004432C82AC8941F20C608443B0883189AD
:1021B0000843718908430443AC81AC8A24F4407419
:1021C000B0890443AC826846FEF7FDFEB5488542FF
:1021D00002D0B948854202D1DDF80C9001E0DDF86B
:1021E0000890A88900F4004040B109EBC90000EB59
:1021F000091031684900B0FBF1F707E009EBC900AD
:1022000000EB091031688900B0FBF1F76420B7FBDF
:10221000F0F004012009642101FB1078A88900F482
:10222000004040B1322000EBC800B0FBF1F000F0FC
:102230000700044308E0322000EB08106421B0FBE3
:10224000F1F000F00F0004432C81BDE8FF874FF44C
:102250001651016000218180C18001810C214181E2
:1022600000218181704710B502460020108A20F4B9
:1022700070600B884C8823438C882343CC8823438D
:102280001843108210BD0021018041808180C180EF
:10229000704721B1828942F40052828104E0828930
:1022A0004DF6FF731A4082817047028B02F47F4221
:1022B0000283028B0A430283704721B1828942F470
:1022C0000042828103E08289C2F30E02828170475C
:1022D00021B1828A42F40062828204E0828A4FF253
:1022E000FF731A4082827047C1F3080282807047F0
:1022F00001468888C0F308007047028A4FF6F073E1
:102300001A400282028A0A430282704721B18289FE
:1023100042F00202828104E082894FF6FD731A4086
:102320008281704782894FF2FF731A4082818289CD
:102330000A4382817047028A4FF6DF731A40028295
:10234000028A0A430282704721B1028A42F4804223
:10235000028204E0028A4BF6FF731A400282704741
:10236000818941F001018181704721B1828A42F067
:102370000802828204E0828A4FF6F7731A40828252
:102380007047028BD2B20283028B42EA012202839F
:10239000704721B1828A42F02002828204E0828A60
:1023A0004FF6DF731A408282704721B1828A42F071
:1023B0001002828204E0828A4FF6EF731A40828212
:1023C0007047828A4FF6FB731A408282828A0A43E0
:1023D0008282704721B1828A42F00202828204E046
:1023E000828A4FF6FD731A40828270471AB1838A3F
:1023F0000B43838202E0838A8B4383827047F0B56C
:102400000346002400260025002040F66A17B94242
:1024100000D100BF1846C1F3421401F01F06012786
:1024200007FA06F5012C01D10C3004E0022C01D191
:10243000103000E014301AB107682F43076002E043
:102440000768AF430760F0BD02460020B1F5007F8A
:1024500000D100BF13880B400BB1012000E0002029
:10246000704701F40072B2F5007F00D100BFCA438B
:102470000280704770B5024600240023002500202A
:1024800040F66A16B14200D100BFC1F3421501F017
:102490001F03012606FA03F3012D13D19689334059
:1024A00017E00000001001400044004000480040D8
:1024B000004C0040005000400014014000780040F3
:1024C000007C0040022D02D1168A334001E0968A3A
:1024D00033400C12012606FA04F41688344013B176
:1024E0000CB1012000E0002070BD10B500220023D7
:1024F00040F66A14A14200D100BF0A1201249440A0
:10250000A3B2DC43048010BD10B504466FF0040094
:10251000FEF7E8FAE11704EB5171C1F3C701394A3C
:1025200011701046007800EB4001C1EBC0104FF66F
:10253000FF7101EAC0003449088010BD0146314AEC
:1025400012784A434FF0E0235A6100229A611A46FA
:10255000126942F001021A6100BF4FF0E0221069D7
:1025600000F001021AB100F48032002AF5D04FF0D9
:10257000E022126922F001024FF0E0231A610022EA
:102580009A6170470146204A12884A434FF0E0237F
:102590005A6100229A611A46126942F001021A61D8
:1025A00000BF4FF0E022106900F001021AB100F400
:1025B0008032002AF5D04FF0E022126922F00102A9
:1025C0004FF0E0231A6100229A61704770B504460B
:1025D0004FF4077094FBF0F0C6B24FF4077094FB11
:1025E000F0F100FB114085B205E04FF40770FFF7F2
:1025F000C9FF701EC6B2002EF7D115B12846FFF7ED
:10260000C1FF70BD8C0000208E000020014600BF7D
:10261000704700BF4C4A128802F04002002AF9D0ED
:10262000C2B2494B9A80704710B588B00446012168
:102630000846FEF799FD01211020FEF7EFFD072265
:1026400009214248FEF77DFB07220A213F48FEF799
:1026500078FB4FF4C060069002208DF81C008DF8C6
:102660001D0000208DF81E0001208DF81F0006A916
:102670003648FEF7DBFA02940020ADF80C00ADF806
:102680000E00ADF81000ADF814000C20ADF81200EB
:1026900002A92D48FFF775FD01212B48FFF7F9FD31
:1026A000012240F225512848FFF7A9FE25208DF888
:1026B000040003208DF805008DF8060001208DF838
:1026C000070001A8FEF7C1F908B010BD10B540F22F
:1026D00025511D48FFF7CEFE10B31B48FFF708FE3B
:1026E000C4B21B48008800F40040C8B918480088EC
:1026F00000F4804060B10A2C03D000201449088007
:1027000020E01348008840F400401149088019E097
:102710000D2C06D10E48008840F480400C490880FA
:1027200010E00B480088C0F30D000A490C5408481B
:102730000088401C0649088008460088C72801DD3B
:102740000020088010BD0000001001400000024081
:10275000940000201801002010B500244FF47A7076
:10276000FFF734FF00BF0DE02048015D2048FFF770
:10277000BBFD00BF40211E48FFF766FE0128F9D1CE
:10278000601CC4B20D2CEFDB4FF4FA70FFF71EFF94
:1027900000240DE01748015D1548FFF7A5FD00BFB7
:1027A00040211348FFF750FE0128F9D1601CC4B244
:1027B000152CEFDB4FF4FA70FFF708FF00240DE053
:1027C0000D48015D0A48FFF78FFD00BF4021084812
:1027D000FFF73AFE0128F9D1601CC4B2102CEFDBE0
:1027E0004FF4FA70FFF7F2FE10BD0000CF0000209A
:1027F00000100140DC000020F10000201CB5012188
:102800001120FEF7B1FC1820009000208DF8040084
:1028100003208DF8050001208DF8070069462C483B
:10282000FEF704FA0120009002208DF807006946A7
:102830002848FEF7FBF91CBD10B5044614B1012071
:10284000254908702448007858B310212048FEF725
:102850004FFA50B108211E48FEF74AFA28B101216B
:102860001C48FEF745FA01281BD10A20FFF7AEFEEF
:1028700000201949087010211548FEF739FA08B9E7
:10288000012010BD08211248FEF732FA08B90220D3
:10289000F7E701210F48FEF72BFA012815D1032095
:1028A000EFE710210A48FEF723FA01280DD108218D
:1028B0000748FEF71DFA012807D101210548FEF758
:1028C00017FA10B90120044908700020D9E7000068
:1028D00000100240000002400101002000200CE036
:1028E000002106E00022FE4B03EBC1031A544A1CF0
:1028F000D1B28029F6DB421CD0B20828F0DB704749
:1029000010B5F84B19600023F74CC4F8A43200222C
:1029100016E00023F34C0C3C236000F080031BB155
:102920000123241D236003E00023EE4C083C2360B8
:102930000123EC4C0C3C23604306180E531CDAB206
:10294000082AE6DB0123E74C241D2360E64CC4F88B
:10295000A03210BD1CB501211020FEF705FC4FF47C
:102960007870009001208DF8040000208DF806009A
:1029700001208DF8070003208DF805006946DB482B
:10298000FEF754F90120D74908390860D649C1F843
:102990009402D449091D0860091F08600020091F1E
:1029A00008606420FFF712FE0120CF49C1F89C02A5
:1029B0000021AE20FFF7A4FF0021D520FFF7A0FFE4
:1029C00000215020FFF79CFF0021A820FFF798FF6F
:1029D00000213F20FFF794FF0021D320FFF790FF55
:1029E00000210846FFF78CFF00214020FFF788FFF9
:1029F00000218D20FFF784FF00211420FFF780FFC6
:102A000000212020FFF77CFF00210220FFF778FF44
:102A10000021A120FFF774FF0021C020FFF770FF05
:102A20000021DA20FFF76CFF00211220FFF768FF7A
:102A300000218120FFF764FF0021EF20FFF760FFF6
:102A40000021D920FFF75CFF0021F120FFF758FF9C
:102A50000021DB20FFF754FF00213020FFF750FF5B
:102A60000021A420FFF74CFF0021A620FFF748FF1C
:102A70000021AF20FFF744FFFFF730FF1CBD30B54A
:102A800000241CE004F1B001C8B20021FFF738FFB8
:102A900000210846FFF734FF00211020FFF730FF28
:102AA000002508E08E4901EBC501085D0121FFF713
:102AB00027FF681CC5B2802DF4DB601CC4B2082C53
:102AC000E0DB30BDF0B5144600267F2801DC3F294D
:102AD00000DDF0BD0B46CF1701EB5777FF10C7F1B4
:102AE0000707FAB2CF1701EB5777FF10A1EBC70723
:102AF000FDB2C5F107070123BB40DEB24CB1784BF4
:102B000003EBC0039B5C3343754F07EBC007BB541B
:102B100008E0734B03EBC0039B5CB343704F07EBC0
:102B2000C007BB5400BFD4E72DE9F84F80460F46DD
:102B300016461C46BA462046E31704EB5373DB10D7
:102B400021464FEAE47C04EB5C7C4FEAEC0CA4EBFE
:102B5000CC0CBCF1000F02D04FF0010C01E04FF0A3
:102B6000000C6344224604EBD27C4FEA6C0C03FB5E
:102B70000CF303F0FF0BA6F12000C6B200254EE0D7
:102B80000C2C07D106EB4600594901EB8000405D53
:102B9000009013E0102C05D1564800EB0610405D64
:102BA00000900BE0182C07D106EBC600524901EB50
:102BB0008000405D009001E0BDE8F88F4FF0000913
:102BC00027E0009800F0800028B1394640460A9A74
:102BD000FFF778FF09E00A9808B9012000E000201B
:102BE000024639464046FFF76DFF00984006000E4A
:102BF0000090781CC7B2A7EB0A00A04205D1574647
:102C000008F1010000F0FF0806E009F1010000F002
:102C1000FF09B9F1080FD4DB00BF681CC5B25D45E0
:102C2000AEDB00BFC8E710B50246012000E050430C
:102C30000B1EA1F10104E1B2F9D110BD2DE9FF4F46
:102C400085B0064690469946129C00200490039059
:102C5000824602900190B8F1000F03DAC8F1000833
:102C600001200490002574E0A9EB0500401EC1B2CC
:102C70000A20FFF7D8FFB8FBF0F00A21B0FBF1F211
:102C800001FB1207CDF80CA0BA460298A8B9A9F129
:102C90000100A84211DD77B90120A34604EBDB71E6
:102CA000491001FB05610090C8B223462022069915
:102CB000FFF73AFF4BE0012002900498F0B90120A1
:102CC000A34604EBDB71491001FB05610090C8B21B
:102CD00007F13001CAB223460699FFF725FF35E018
:102CE000E0010020A00242420000424200100240E7
:102CF000284F00089C5300088C590008BAF1000FB7
:102D000014D0039890B9019880B90120A34604EB30
:102D1000DB714A10691E02FB01610090C8B22346B4
:102D20002D220699FFF700FF012001900120A34604
:102D300004EBDB71491001FB05610090C8B207F19B
:102D40003001CAB223460699FFF7EEFE00BF681CA9
:102D5000C5B24D4588DB09B0BDE8F08FF8B5064631
:102D60000F4615461C4621E004EBD4714910C1F111
:102D70008001B14202DA00263819C7B2C4F140001E
:102D8000B84204DA002006460746FFF7A7FD0120F7
:102D900000902A78234639463046FFF7C5FE204684
:102DA00004EBD07106EB6101CEB26D1C28787E2851
:102DB00002DC28782028D7DAF8BD00B500218D2064
:102DC000FFF79EFD00211420FFF79AFD0021AF20A0
:102DD000FFF796FD00BD00B500218D20FFF790FDA7
:102DE00000211020FFF78CFD0021AE20FFF788FDA9
:102DF00000BD2DE9F04706460F4690469946DDF89E
:102E000020A034460CE03D4606E0524629462046C6
:102E1000FFF758FE681CC5B24D45F6DD601CC4B214
:102E20004445F0DDFFF72BFEBDE8F0872DE9F84FB4
:102E300007468A4690461E460A9D012407E0E1B2F5
:102E40000A20FFF7F0FE404500D902E0641CB442BE
:102E5000F5DB00BFA6EB040933464246514638462F
:102E60000095FFF7EBFE00240EE00120AB4605EBDA
:102E7000DB71491001FB04710090C8B22B4630226F
:102E80005146FFF751FE641C4C45EEDBBDE8F88F60
:102E90002DE9FC4F06468846154699460B9C204670
:102EA00004EBD071C1F3470AFDEEC00A10EE907A30
:102EB00049460A20FFF7B7FE00EE900AB8EE601A06
:102EC00000EE907AF8EEE00A70EE600A61EE200AF9
:102ED000FDEEE00A10EE90BABBF1000F01DB5846A0
:102EE00001E0CBF100000190681CC3B23A464146B4
:102EF00030460094FFF7A2FEB5EEC00AF1EE10FADC
:102F00000DD267B9012005EB450106EB4101891F90
:102F10000090C8B223462D224146FFF705FE08EB7C
:102F20000402D21ED1B26A1C02FB0A62521CD0B249
:102F30000122FFF7C7FD691C01FB0A61C91CC8B269
:102F40004B4600944146019AFFF770FFBDE8FC8FA5
:102F50001CB501210846FEF707F93020009001203A
:102F60008DF8040000208DF8060003208DF8050080
:102F700001208DF807006946C448FDF757FE10216F
:102F8000C248FDF7CFFE2021C048FDF7CDFE1CBD95
:102F900030B58BB004460D4601210220FEF73EF904
:102FA00001210420FEF7E0F803220721B848FDF7CD
:102FB000C8FE8020099002208DF8280003208DF89B
:102FC000290000208DF82A0002208DF82B0009A985
:102FD000AF48FDF72BFE06A8FEF7FBFA0794ADF805
:102FE00018500020ADF82000ADF81A0006A9A94835
:102FF000FEF7BBFA0121A748FEF780FF0121A54893
:10300000FEF712FB0821A348FEF726FB7020ADF85F
:1030100004000120ADF806000020ADF808006010A3
:1030200003900020ADF8100001A99A48FEF76BFB51
:1030300008219848FEF7C4FC01219648FEF700FBE2
:10304000012211469348FEF731FF2C208DF8000035
:1030500001208DF801008DF802008DF8030068460C
:10306000FDF7F3FC01218B48FEF748FF0121894859
:10307000FEF704FB0BB030BD10B501218548FEF70B
:103080002CFF002855D001218248FEF737FF8248E7
:103090000078002841D18148006848B1FF207D496F
:1030A000303108807D480068401E7C49086010E08F
:1030B0007B48007860B17A480078401E754930310D
:1030C000088000207649087001207349087000E0EC
:1030D00024E001216F48FEF7F2FE01216D48FEF762
:1030E000BEFE01216B48FEF7C9FA6E480078012840
:1030F00009D1684830300088401C6B490968084491
:103100006949086015E0634830300088401C664912
:103110000968081A644908600BE000BF01205E4995
:10312000087000215B48FEF79AFE00215948FEF71F
:10313000A5FA10BD70B504465C48B0FBF4F0401E23
:1031400085B229465348FEF75BFA69105148FEF7ED
:10315000FCFB00214F48FEF751FA01214D48FEF7D4
:103160008DFA70BD70B504460D461646002C00DC85
:1031700070BD4848008800F0010000B1F8E7142D48
:1031800002D34B48854200D9F2E7464806700078E2
:103190004849086043480078012805D14248006842
:1031A00020444549086007E03E48007820B93E4881
:1031B0000068001B404908602046E11704EB1161DC
:1031C0000912364A1160E11704EB11610912A4EBF0
:1031D0000121334A117000202F4908702846FFF75B
:1031E000A9FF00BFC4E770B505460C462948008812
:1031F00000F0010000B170BD142C02D32C488442B1
:1032000000D9F8E72C48056000682749096888421A
:103210003AD02948006824490968884203DD012022
:103220002049087002E000201E4908701D480078FF
:1032300020490860204A12681B4B1B68D11A0029DC
:1032400001DB0A4600E04A421046D21700EB126248
:103250001212124B1A60184A1268134B1B68D11ACB
:10326000002901DB0A4600E04A421046D21700EB73
:1032700012621212A0EB0222094B1A7000200649BA
:1032800008702046FFF756FF00BFB4E70000024079
:103290000008024000040140050100200801002050
:1032A00004010020140100201001002040420F0002
:1032B000A0860100900240420C01002010B52DEDC7
:1032C000068B044604EB4401480001F04EFA9FEDE2
:1032D000160B53EC102B01F0C1F800F0D1FF08EEF3
:1032E000100ABDEEC80A10EE100ABDEC068B10BD28
:1032F00010B52DED068B0446204601F036FA41EC60
:103300001A0B9FED090B53EC102B01F0A7F841ECC1
:10331000190B00F0B5FF08EE100ABDEEC80A10EE5A
:10332000100ABDEC068B10BDCDCCCCCCCCCCCC3FA8
:103330007047704770477047704710B500F008F845
:10334000006810BD10B5044600F002F8046010BD1E
:1033500000487047E005002000487047E005002065
:103360007546FFF7F9FFAE4605006946534620F063
:103370000700854618B020B5FDF750FBBDE820409A
:103380004FF000064FF000074FF000084FF0000B21
:1033900021F00701AC46ACE8C009ACE8C009ACE8D4
:1033A000C009ACE8C0098D46704710B50446AFF3BC
:1033B00000802046BDE81040FCF72FBF03B4019801
:1033C0004100009850EAC12018BF04204A0D18BFE0
:1033D00040F0010040F2FF72B2EB515F08BF40F0D5
:1033E0000200012808BF052002B07047000000005D
:1033F0002DE9F04D2DED040B2DED0E8B96B0DDE992
:103400002550279CDDF890A025F0004624F00048C8
:10341000BAF1000F14BF0121002101EB4502FC4964
:1034200053184A1093422AD3002814BF01230023C3
:1034300003EB44030B44F7498B4220D358EA0001C5
:103440009FEDF59B76D0DFF8D8B35D4503D1BAF197
:10345000000F05D188E0BAF1000F08BF002100D0AD
:10346000012101EB450111F5001F08D8002814BF08
:103470000121002101EB440111F5001F0BD99DED45
:10348000261B9DED240B16B0BDEC0E8B04B0BDE8E1
:10349000F04D00F069BE0027002DBCBFE149884512
:1034A00021DAE1498845A8BF02271CDAC3451ADCA6
:1034B000DE4901EB2851142908DDC1F1340220FA5C
:1034C00002F101FA02F282420DD108E058B9C1F1CD
:1034D000140228FA02F101FA02F2424503D101F086
:1034E0000101C1F1020756EA0A0124D1002C22DAB7
:1034F000002D18BF022F01D0012F0AD00220FFF7A4
:1035000021FF16B0BDEC0E8B04B0BDE8F04D00F00D
:1035100013BE0220FFF716FF00F00EFE51EC100B59
:1035200000F0A1FE41EC100B16B0BDEC0E8B04B008
:10353000BDE8F08D18E09FEDBEAB9FEDBF8B00287E
:1035400071D1B848804522D105F1804010F5801036
:1035500008BFBAF1000F07D0B3450ADC002CA8BFA2
:103560009DED260BE0DA0DE0B0EE490AF0EE690AB7
:10357000DAE7002C06DA9DED260B51EC100B00F07B
:1035800072FE6FE0AE48784490ED000BCCE7D84572
:103590004DD1002C48DA2EB186423AD1BAF1000F53
:1035A00042D126E0BAF1000F13D00220FFF7CAFE85
:1035B00000F0F6FD8DED020B9DED240B8DED000B63
:1035C00010EE900A039961F31E0003909DED020B2B
:1035D000AAE78DED02AB9DED240B1AEE901A10EECA
:1035E000900A8DED000B61F31E0003909DED020B20
:1035F0009AE78DED028B9DED240B18EE901A10EEDC
:10360000900A8DED000B61F31E0003909DED020BFF
:103610008AE709DA9DED240B51EC190B53EC102BC2
:1036200000F01CFF1EE020E09DED240B7CE78642AD
:103630001BDAB4F1804F0DD0A4F10050B0F1FF506F
:1036400013D1002D11DB9DED240B51EC100B00F07C
:10365000D3FD07E09DED240B53EC102B51EC100B28
:1036600000F0C2BC41EC100B5EE79DED240B51EC69
:10367000100B00F0B5FDBAF1000FCDE90E0142D1FB
:103680009FED710B46B3A6F1E040B0F17F600CD026
:103690005E4538D1002D00DAA7B3022F0CBF012000
:1036A0004FF0FF3001F061F8DCE7002D01DD002C68
:1036B0000DDA002D01DD002C1FDB002D16DA002CA9
:1036C00014DB012F08BF9FED620B3FF42DAFB0EE6E
:1036D0004A0AF0EE6A0A27E7022F18BF002D0CD025
:1036E000012F0AD1002DFFF61FAF06E0002DB8BF55
:1036F000002C08DA012F3FF417AFB0EE480AF0EEC5
:10370000680A11E71BE0012000EBE57050EA0701B1
:1037100015D0791EB0EE498AF0EE698A084308BFD9
:103720009FED4D8B4E480025804570DD4D494E483C
:10373000884514DDB0420DDB002C19DB2FE00120A1
:10374000FFF700FE16B0BDEC0E8B04B0BDE8F04DE7
:1037500000F016BDB34502DC002C09DC1FE08642F8
:1037600002DA002C1BDA03E05E452BDD002C16DDAF
:103770000220FFF7E7FD00F013FD8DED020B53EC87
:103780001A2B51EC180B01F057F8CDE90001039901
:10379000019861F31E0003909DED020BC4E6022028
:1037A000FFF7D0FD00F00CFD10EE901A18EE900A15
:1037B0008DED020B8DED008B61F31E0003909DEDEE
:1037C000020BB1E69DED0E0B53EC192B51EC100BD7
:1037D00001F03EFA9FED260BCDE9080153EC102BCA
:1037E0009DED080B51EC100B01F026F89FED221B0C
:1037F00053EC112B01F054F99DED081B53EC112BE8
:1038000001F01AF89FED1E1B53EC112B3CE08CE0ED
:10381000FFFF1F00FFFF0F00000000000000F03F4F
:103820000000F03F0000F07F0000404301FCFFFF7C
:10383000000000000000F07F000000000000000019
:10384000E6310000000000000000000000000080E1
:10385000000000000000F0FF000000000000F0BFCA
:103860000000E0410000F043FFFFEF3F00000000D8
:10387000000000000000D03F555555555555D53F27
:10388000000000000000E03F01F00AF99DED080B88
:1038900041EC1A0B53EC102B51EC100B00F0CCFF49
:1038A00053EC1A2B00F0C8FF41EC1A0B9FEDFE0BF6
:1038B00053EC102B9DED080B51EC100B00F0BCFFEE
:1038C00041EC1B0B9FEDFA0B51EC1A0B53EC102B38
:1038D00000F0B2FF41EC1A0B9FEDF70B53EC102BED
:1038E0009DED080B51EC100B00F0A6FF53EC1A2BCA
:1038F00001F0AEF941EC1A0B51EC1B0B53EC1A2BF7
:1039000000F0F0FC0690CDE906519DED060B53EC5E
:103910001B2B51EC100B01F09BF953EC1A2B01F00F
:10392000BFF841EC100B00F0A1B90020B6F5801FE4
:103930000EDA9FEDE30B53EC102B9DED0E0B51ECCB
:10394000100B00F079FFCDE90E016FF034000E4648
:1039500000EB2650A0F2FF37C6F31300DA4940F01F
:103960007F6646F040568842D8BF002408DDD7491C
:103970008142C8BF012403DC0024A6F580167F1C09
:10398000D348784400EBC4000F9690ED00CB9DED3A
:103990000E0B53EC1C2B51EC100B01F059F99DED63
:1039A0000E0B41EC1B0B53EC1C2B51EC100B00F0DD
:1039B00099FC41EC100B51EC190B53EC102B00F05F
:1039C0004DFD41EC1D0B51EC1B0B53EC1D2B00F07E
:1039D00033FF41EC1A0BBF488DED10AB78441095C6
:1039E00090ED000B4FF0005040EA660000EB844081
:1039F0008DED080B00F5002009909DED080B53ECB0
:103A00001C2B51EC100B01F023F99DED0E1B53EC18
:103A1000112B01F045F841EC100B53EC102B9DEDF0
:103A2000100B51EC100B00F007FF9DED080B41EC63
:103A30001C0B53EC102B9DED100B51EC100B00F0F8
:103A4000FBFE53EC1B2B01F02BF853EC1C2B01F06D
:103A5000FFF853EC1D2B00F0EFFE41EC1C0B53EC78
:103A60001A2B51EC1A0B00F0E7FE41EC1B0B9A48A5
:103A70000621B0EE4B0AF0EE6B0A784400F0E0FA53
:103A8000B0EE401AF0EE601AB0EE41DAF0EE61DA14
:103A900053EC1B2B51EC1B0B00F0CEFE53EC1D2BFB
:103AA00000F0CAFE9DED100B41EC1B0B53EC1A2BE2
:103AB00051EC100B00F016FC53EC1C2B00F0BCFE7C
:103AC00053EC1B2B00F00EFC9DED100B41EC1B0B7F
:103AD00053EC102B51EC100B00F0AEFE41EC1D0B23
:103AE0009FED7FEB53EC1E2B00F0FCFB53EC1B2BEC
:103AF00000F0F8FB0890CDE908519DED080B53EC60
:103B00001E2B51EC100B01F0A3F853EC1D2B01F010
:103B10009FF853EC1B2B00F0C3FF9DED080B41EC0D
:103B20001D0B53EC102B9DED100B51EC100B00F006
:103B300083FE41EC1B0B53EC1A2B51EC1D0B00F0D8
:103B40007BFE9DED080B41EC1A0B53EC102B51EC56
:103B50001C0B00F071FE53EC1A2B00F0C3FB41EC80
:103B60001A0B51EC1B0B53EC1A2B00F0BBFB0C9007
:103B7000CDE90C519DED0C0B53EC1B2B51EC100BB4
:103B800001F066F853EC1A2B00F08AFF41EC1B0B96
:103B90009FED550B53EC102B9DED0C0B51EC100BC6
:103BA00000F04AFE41EC1A0B9FED510B51EC1B0B40
:103BB00053EC102B00F040FE41EC1B0B9FED4E0B25
:103BC00053EC102B9DED0C0B51EC100B00F034FE60
:103BD00053EC1B2B00F086FB41EC100B484878445B
:103BE00000EBC40090ED001B51EC100B53EC112BBB
:103BF00000F078FB41EC1B0B384600F0B6FDCDE938
:103C0000080153EC1B2B51EC1A0B00F06BFB41EC41
:103C1000100B3C48784400EBC40090ED00CB51EC15
:103C2000100B53EC1C2B00F05DFB9DED081B53ECBF
:103C3000112B00F057FB0690CDE906519DED080BC6
:103C400053EC102B9DED060B51EC100B01F000F81E
:103C500053EC1C2B00F0FCFF53EC1A2B00F0F8FF88
:103C600053EC1B2B00F01CFF41EC100B9DED261BB1
:103C700053EC102B8DED001B00959DED260B51ECA8
:103C8000100B00F0D9FD9DED000B41EC1A0B53EC2D
:103C9000102B9DED260B51EC100B00F0D9FF9DED84
:103CA000061B53EC112B2FE0000000604715F73F77
:103CB000FE822B654715F73F44DF5DF80BAE543E9F
:103CC00000000000000040438E9803007AB60B000D
:103CD000622D0000902D00009A2C000000000000D2
:103CE0000000000000000840000000E009C7EE3FAF
:103CF000FD033ADC09C7EE3FF5015B14E02F3EBE41
:103D0000262B0000E02A000000F096FD53EC1A2B51
:103D100000F0E8FA9DED060B41EC1A0B53EC102B6A
:103D20009DED000B51EC100B00F086FDCDE90C0170
:103D30009DED0C0B51EC1A0B53EC102B00F0D2FA4A
:103D4000CDE902010C46AA498C422FDB611A0843D7
:103D500018D19DED0C0B53EC102B9DED020B51EC8B
:103D6000100B00F075FF41EC1B0B9FEDA30B51EC0A
:103D70001A0B53EC102B00F0B5FA53EC1B2B00F090
:103D800059FE2DD20220FFF7DDFA00F009FA10EEFD
:103D9000901A18EE900A8DED020B8DED008B61F3F9
:103DA0001E0003909DED020BFFF7BEBB944A24F06A
:103DB0000041914214D39349214408437FF4EFAC6E
:103DC0009DED0C0B53EC102B9DED020B51EC100BE9
:103DD00000F03EFF53EC1A2B00F02CFE7FF6DFAC18
:103DE00024F000408849894A002601EB2051824294
:103DF0002BDA481C4FF4801121FA00F02044844A49
:103E0000C0F30A517A44A1F2FF3192ED000B814ACE
:103E10008DED080BCA4020EA0202C0F3130040F403
:103E20008010C1F1140120FA01F60992002CB8BFEC
:103E300076429DED080B53EC102B9DED0C0B51ECD5
:103E4000100B00F005FFCDE90C019DED0C0B51ECC2
:103E50001A0B53EC102B00F045FA9FED6F0B0890F6
:103E6000CDE9085153EC102B9DED080B51EC100BD4
:103E700000F0E2FC41EC1B0B9FED690B53EC102BA7
:103E80009DED080B51EC100B00F0D6FC9DED0C0BDA
:103E900041EC1C0B53EC102B9DED080B51EC100B5F
:103EA00000F0D6FE53EC1A2B00F0FAFD9FED5E1BDE
:103EB00053EC112B00F0C0FC53EC1C2B00F012FA59
:103EC00041EC1A0B51EC1B0B53EC1A2B00F00AFAC5
:103ED000CDE902019DED020B53EC1B2B51EC100BB5
:103EE00000F0B6FE53EC1A2B00F0DAFD9DED020B4C
:103EF00041EC1A0B53EC102B51EC100B00F09CFC16
:103F0000CDE908014A489DED080B0521784400F0F1
:103F100097F89DED081B51EC100B53EC112B00F0A2
:103F20008BFC9DED021B53EC112B00F0B9FDCDE98C
:103F300006019DED020B53EC1A2B51EC100B00F017
:103F40007BFC53EC1A2B00F0CDF99FED3B0B41ECC1
:103F50001A0B53EC102B9DED060B51EC100B00F0DF
:103F600077FE9DED060B41EC1B0B53EC102B9DEDEA
:103F7000020B51EC100B00F05FFC53EC1B2B00F01C
:103F80006DFA53EC1A2B00F063FE9DED021B53EC0F
:103F9000112B00F05DFE53EC192B00F081FDCDE9F3
:103FA000020101EB065001150029C8BF039015DC82
:103FB0009DED020B324651EC100B00F06FFFFFF746
:103FC000FDF9042808BF00F0FBF832469DED020B16
:103FD00051EC100B00F062FFCDE902019DED020BE8
:103FE00051EC180B53EC102B00F026FCFFF73ABBFA
:103FF0000000904000000000FE822B654715973CB2
:1040000000CC904000346F3F01FCFFFF0000E03F18
:1040100068290000FFFF0F0000000000432EE63F6C
:10402000396CA80C615C20BEEF39FAFE422EE63FE7
:1040300038280000000000000000000000000040E0
:1040400070B504462DED028B4D1E00EBC500B0EEA1
:10405000408AF0EE608A90ED000B35F0060017D034
:1040600053EC182B51EC100B00F0E6FB41EC100B5D
:104070006D1E04EBC50090ED001B51EC100B53ECD2
:10408000112B00F02FF941EC100B35F00600E7D1B1
:10409000022D36D0042D1CD0062D1CBFBDEC028B8A
:1040A00070BD53EC182B51EC100B00F0C5FB94EDD8
:1040B0000A1B53EC112B00F015F953EC182B00F0F0
:1040C000BBFB94ED081B53EC112B00F00BF941ECFA
:1040D000100B53EC182B51EC100B00F0ADFB94EDD2
:1040E000061B53EC112B00F0FDF853EC182B00F0DD
:1040F000A3FB94ED040B53EC102B00F0F3F841EC10
:10410000100B53EC182B51EC100B00F095FB94EDB9
:10411000021B53EC112B00F0E5F853EC182B00F0C8
:104120008BFB94ED001B53EC112B00F0DBF8BDEC86
:10413000028B41EC100B70BD9FED070B10B553ECDB
:10414000102B9FED070B51EC100B00F087F941ECA1
:10415000100B10BD00000000000000000000000077
:10416000000000000000F03F10B553EC112B51ECA3
:10417000100B00F0B7F841EC100B10BD0000000070
:104180009FED050B10B553EC102B51EC100B00F00C
:1041900065F941EC100B10BD0000000000000000AC
:1041A0009FED050B10B553EC102B51EC100B00F0EC
:1041B00043FB41EC100B10BD00000000000000703C
:1041C0009FED050B10B553EC102B51EC100B00F0CC
:1041D00033FB41EC100B10BD00000000000000108C
:1041E00082B0CDE9000121F0004001909DED000B6F
:1041F00002B051EC100B704700B52DED048B83B06D
:1042000041EC190B00F058FC41EC180B18EE100AA9
:1042100018EE901A8DED008B002818BF012008437E
:1042200020F00040C0F17F6000F1E040C00F14D0EA
:1042300019EE101A19EE900A8DED009B002918BF97
:104240000121084320F00040C0F17F6000F1E04010
:10425000C00F04BF0120FFF775F851EC180B03B035
:10426000BDEC048B00BD81F00041704780F0004040
:10427000704721F00041704720F000407047000077
:1042800021F00042A2F16052B2F5801F01F000431C
:1042900028BFD2F17F6C0BD95FEA001C43EAC2024F
:1042A00042EB507018BF704728BF20F001007047E4
:1042B000B2F5801FBCBF184670474FEA410C1CF591
:1042C000001F02D2084600F0B2BD70B500F05EFBE0
:1042D00000000089FFF7F6BF4FF00040A0F5800016
:1042E0007047000010B591EA030F48BF83F0004308
:1042F00000F1B684841A71EB030C05D2121943EB5A
:104300000C03001B61EB0C01DFF824E14FEA1154B0
:10431000A4EB135C1EEA430F18BF9EEA445F73D000
:1043200023EA0E03DCF1200E21EA045143F480134A
:1043300032D322FA0CFE10EB0E0023FA0CFE41EBF6
:104340000E01CCF1200E03FA0EFE10EB0E0051F11F
:104350000001B1F5801FCCF1200E32D201EB0451E7
:1043600012FA0EF2BDE8104058BF7047401C38BF2B
:104370005FEA420218BF7047002814BF20F0010016
:1043800041F100014FEA410313F5001F38BF7047A8
:10439000A1F1C04100F048BB012A43EB0302ACF19C
:1043A000200CDCF11F0E32BF4FF0000E23FA0CF38D
:1043B00010EB030041EB0451B4EB115FD0D0A1EB43
:1043C000045101F5801149085FEA300001EB045106
:1043D0000ED350F1000038BF12FA0EFE08D1BDE82E
:1043E0001040C9E7401C38BF5FEA4202CAD1C3E7A8
:1043F000BDE810404FEA410313F5001F38BF704776
:10440000A1F1C04100F010BB9EEA445F08D011EA60
:104410005E0FBDE8104004BF01F00041002070476E
:10442000BDE8104070B500F0B1FA00BF64FBBE3EBD
:104430000000E0FF02494FF0000000F0FDBC00BFAB
:104440000000F87F491058BFC1F140415B1058BFD0
:10445000C3F140438B42EFF3008070472DE9C04128
:1044600030B4DFF8A0C23CEA111418BF3CEA1314C0
:1044700000F0EC8081EA03051CEA111444EAD574CB
:1044800018BF1CEA131500F0C780A4EB05044FF019
:10449000004545EAC12145EAC32341EA505143EAB8
:1044A000525304F17F74994204F500344FEAC0205E
:1044B0004FEAC22208BF904200F09C804FEA136589
:1044C0000FF24016765D4FEA134506FB05F7C7F17C
:1044D000807706FB07F74FEAD737A7FB03687642DA
:1044E000C8F58038A7FB06CE38BFA8F1010807FB46
:1044F00008E64FF0000EA6FB028CE6FB03CEDCF1D3
:10450000000CCEF1004E38BFAEF1010EA6FB0C58E8
:104510004FF000074FF00005E6FB0E87A1FB08C631
:10452000A0FB07CE16EB0E0645F10005E1FB076583
:1045300015F1E04E7EBFA4F580345FEA46066D417A
:1045400016F1800745F100054FEA17274FEA066686
:1045500047EA0567A6F1DE46B6F1805F4FEA15250A
:104560001FD9384624F0010C05EBC471BCF1FE6F75
:1045700001EB0C1102D8F0BCBDE8008124425CBF05
:1045800001F5801E9EEAC47F02D4F0BCBDE8008124
:10459000244238D4F0BCA1F1C041BDE8004100F094
:1045A00043BA4FEAD22242EA43524FEAD323A7FB4F
:1045B00002864FEAD02040EA415007FB03661EEA1C
:1045C0000E0F4FEAD12105FB026658BFA6EB00563D
:1045D000B6EB00564FEA520E4EEAC37E18EB0E0EB3
:1045E00056EB530EBDD518EB02085E417F1C55F10A
:1045F0000005B6E74FF480154FF000074FF00006B6
:104600004FF00008ADE7F0BC4FF0000001F1C041F1
:1046100001F00041BDE8008111EA0C1F0CEA1315FE
:1046200000D00CE013EA0C1F00F025804FF00000D2
:10463000F0BC81EA030101F00041BDE80081F0BC5B
:10464000BDE8004181EA030100F0EEB9F0BCBDE82D
:10465000004170B500F09AF9097EFC3E00F007B801
:1046600081EA03014FF0000001F00041704781EA48
:10467000030100F0D9B9F0BCBDE800414FF00000E3
:1046800021497047FFFDFBF9F7F5F4F2F0EEEDEB91
:10469000E9E8E6E4E3E1E0DEDDDBDAD8D7D5D4D340
:1046A000D1D0CFCDCCCBCAC8C7C6C5C4C2C1C0BF8C
:1046B000BEBDBCBBBAB9B8B7B6B5B4B3B2B1B0AF92
:1046C000AEADACABAAA9A8A8A7A6A5A4A3A3A2A176
:1046D000A09F9F9E9D9C9C9B9A9999989797969531
:1046E00095949393929191908F8F8E8E8D8C8C8BCD
:1046F0008B8A898988888787868585848483838255
:10470000828181800000FF070000F87F4FEA4103AB
:104710004FEA5353A3F58063D3F11E03C8BFD3F10F
:10472000210C0CDD4FF0004242EAC12242EA505215
:1047300032FA03FC8CEAE17CACEBE1707047102BA1
:10474000C4BF0020704703F5787CBCF1FF3F04D064
:104750006FF0004282EA2100704770B500F016F950
:104760004992248000207047F2E710F0004248BFD1
:104770004042B0FA80F310FA03F10AD0C3F11D03EE
:1047800003F580634FEA415002EB035202EBD12163
:1047900070474FF000007047B0FA80F310FA03F151
:1047A0000AD0C3F11D0303F580634FEA41504FEA7D
:1047B000035202EBD12170474FF000007047000018
:1047C00051EA030C17D41CF5801F58BFBCF5801F9D
:1047D00000F10680994218BF704708BF90427047A9
:1047E00007D711F5801F58BF13F5801F19D49942C0
:1047F0007047894270471CF5801F08D5BCF5801FA3
:10480000F7D58B4218BF704708BF824270474FF4FC
:10481000001C1CEB410F38BF1CEB430F01D28B4235
:10482000704770B500F0B2F8922449004FF0005183
:104830004FF08053FFF706BEDFF848C170B51CEAA1
:10484000111E1EBF1CEA13159EEA0C0F95EA0C0FF1
:1048500000F06F8081EA030423EA4C134EEAD47E11
:1048600021EA4C1141F4801143F48013AE44A1FBC2
:10487000024CA0FB0365AEF17F7E361955EB0C05AB
:10488000A1FB034C4CF10003A0FB021C16EB0C0631
:10489000654153F10003094218BF46F0010613F4C5
:1048A000007F0BD14FEA03314FEA0530340341EA70
:1048B000155140EA16506FF003020AE04FEAC32197
:1048C0004FEAC520F40241EA555140EA56506FF0D4
:1048D000020202EB2E4201EB025585EACE710AD0AC
:1048E0005FEA440C18BF24F0004450F1000041F18D
:1048F000000120EAD47040F2FE7C624500D270BD17
:10490000A84214BF4FF080444FF04044002E08BF2F
:104910000024BEF1806FA8BFA1F1C041BDE8704086
:1049200080F282804FF0000001F1C04101F00041AF
:1049300070479EEA0C0F0CEA131518BF95EA0C0F8E
:1049400006D04FF0000081EA030E0EF0004170BD6A
:1049500000F01CF88900013E00F007B800F009B82B
:104960004FEA430C5FEA5C5C08D081EA030100F087
:104970005BB84FEA410C5FEA5C5CF6D14FF0000097
:10498000014970470000FF070000F87F0EF1020E9A
:104990002EF0030E5EF8046B364205D4012A43EB79
:1049A000030515F5001F12D8012841EB010C1CF579
:1049B000001F0CD80ED14FEAD17C15F5001F0CEB6F
:1049C0004C0C0CF1020C08BF4CEBD37C04E04FF014
:1049D000080C01E04FEAD37C0CEB4C0526FA05F6F7
:1049E00006F00706B6F1040C06D20EEB860CBDE805
:1049F00070404CF0010C6047DFE80CF0090B02023C
:104A00004FF000414FF00000A1F5002170BD1946A4
:104A10001046012851EB010418BFD4F5001484BFDF
:104A2000002001F0004170BD0808A0F500114FEA18
:104A30003101704753EA010C17D41CF5801F58BF91
:104A4000BCF5801F00F106808B4218BF704708BF7D
:104A50008242704707D713F5801F58BF11F5801F9A
:104A600019D48B4270479B4270471CF5801F08D5B4
:104A7000BCF5801FF7D5994218BF704708BF904218
:104A800070474FF4001C1CEB430F38BF1CEB410F69
:104A900001D2994270470FB40CBC03BCFFF7C1BEF2
:104AA00091EA030F10B581F000413FF523AC83F08C
:104AB000004300F0D5B800002DE9F04101F5801C5D
:104AC000BCF5001FC0F2A9804FEA115C21EA0C512D
:104AD0000CF1FD0C41F480115FEA5C0C0CF5C07C1C
:104AE00001D34000494130A4890241EA9051870234
:104AF0008E0E0A0CA45D04FB04F602FB06F6C6F15A
:104B00004046A4FB0662F60D46EA422606FB06F482
:104B1000A4FB01235242C3F1404338BF5B1EA6FBF6
:104B200002420024E6FB0324D20B42EA4446A6FBE1
:104B30000623A1FB02E2A3FB07E4E3FB614264421C
:104B4000C2F1404E38BFAEF1010EA6FB04234FF078
:104B50000002E6FB0E32A2FB03463400E2FB626475
:104B6000A1FB06E6A4FB07E8E4FB61687642C8F116
:104B7000405838BFA8F10108A2FB06E4A3FB08E5F2
:104B8000E2FB6854A1FB05E6A7FB04E8E1FB6486B1
:104B900018F1200556F10006A809A8F11B08B10973
:104BA00008F03F08B8F10A0F40EA86601CD901EB13
:104BB0000C51BDE8F08100BFFCF5EEE8E2DDD8D392
:104BC000CFCBC7C3C0BDB9B6B4B1AEACA9A7A5A37E
:104BD000A19F9D9B9A9896959392908F8D8C8B898F
:104BE0008887868584838281A0FB006800FB01F2B0
:104BF00008EB4208B8EB872807D5341858EB0104B6
:104C0000D5D5401C51F10001D1E7341A78EB0104ED
:104C1000CDD4401E71F10001C9E75FEA4C0C5FEA98
:104C20009C5C0DD105D34FF0000001F00041BDE8C0
:104C3000F081BDE8F04170B5FFF7A8FE6DDBFFBE67
:104C4000BDE8F0414FF00000004970470000F87FD8
:104C500010B591EA030F48BF83F000433FF54AAB1C
:104C6000841A71EB030C07D212198CF0004C43EB41
:104C70000C03001B61EB0C01DFF8A4E14FEA1154B7
:104C8000A4EB135C1EEA430F18BF9EEA445F00F0DA
:104C9000B08023EA6E03524221EA0451C3EB6E0353
:104CA00038BF5B1EDCF1200E25D322FA0CFE10EB80
:104CB0000E0043FA0CFE41EB0E01CCF1200E03FA7C
:104CC0000EFE10EB0E0051F10001CCF1200E29D4A4
:104CD00012FA0EF201EB0451BDE8104058BF7047C4
:104CE000401C1CBFB2F1004F704700280CBF491C8C
:104CF00020F00100704712EB020E43EB030218BFD5
:104D00004FF0010E4EEA4202ACF1200CDCF11E0E17
:104D100054D943FA0CFE10EB0E0051F1FF31CCF1E7
:104D20001E0ED5D50EF1010E12FA0EFE404141EBDA
:104D3000010101EB445C5FEA5C5C10D910EBDE70B2
:104D400001EB045138BFBEF1004FBDE8104018BF61
:104D5000704700280CBF491C20F00100704730D27A
:104D60004FEAD42C11F5001124F400641BD0B1FAE1
:104D700081F20B3AA41AA41ED2F12003914030FA1A
:104D800003F31943904001EBCC71002C01EB04516B
:104D9000BDE81040A8BF704701F1C0414FF00000CE
:104DA00001F000417047B0FA80F310FA03F100D12E
:104DB00010BDE41A173C4805C90AE4E701EB0451A9
:104DC00010BD491001EB0451BDE810404FEA30001E
:104DD00002E04FF0000170474A0008BF0042F8D0DF
:104DE000B2F5001F28BF704701F000414FF00000EE
:104DF00070479EEA445F07D011EA5E0FBDE810409D
:104E000004BF002100207047BDE8104070B5FFF7D7
:104E1000BDFD00BF40DFF63E83F000411046704705
:104E20000000E0FF4FF04070E1EE100A7047FF21F4
:104E300041EAD050C00570470CF00F03092B08BFA2
:104E4000082000F059800A2B0BD0082B18BF7047A0
:104E500008BF1CF0400F0AD04FF000004FF00001D7
:104E600070471CF0400F18BF4FF0004070471CF017
:104E7000100F08D020F0704300F07F4242EAD301C7
:104E80004FEA4370704700F0604021F07F4242EAF1
:104E9000000201F07F4040EA727070474FF0FF0C53
:104EA0004CF4E06C1CEA11531CBF9CEA030C9445C3
:104EB000C2BFDA4201EB02517047002B0DD0BCF1AA
:104EC000000F0FD0002A01F00041A4BF41F0E041E3
:104ED00041F07F614FF00000704701F000414FF05A
:104EE0000000704750EA01334FF09B0C18BF4CF0A4
:104EF000806C7FF49FAA70471CF4801F11D01CF4B3
:104F0000E02F03D06FEACC31490070474FF040509A
:104F1000EFF3008222F0704242EA000282F300883E
:104F200070474FF0000070470000000000000000D4
:104F300000000000000000003F40000000000000F2
:104F400000003000400030004000000009000BC0AD
:104F50003D000BC03D00090018C024407FE0224006
:104F600031800000180024C01B000D8032400180F9
:104F700003801C4027401C80074000401000600058
:104F800000000000000000000000000000001F8082
:104F9000204040200000402020401F8000000000F2
:104FA000090006001F80060009000000040004003C
:104FB0003F800400040000000010006000000000BA
:104FC00000000000040004000400040004000000CD
:104FD000000000400000000000000000002001C0B0
:104FE00006003800400000001F8020402040204084
:104FF0001F800000000010403FC000400000000083
:1050000018C0214022402440184000001080204059
:10501000244024401B80000002000D0011003FC00E
:10502000014000003C8024402440244023800000B4
:105030001F802440244034400380000030002000C2
:1050400027C03800200000001B802440244024405A
:105050001B8000001C0022C0224022401F80000054
:1050600000000000084000000000000000000000F8
:105070000460000000000000000004000A001100AD
:1050800020804040090009000900090009000000D3
:1050900000004040208011000A0004001800200099
:1050A00023402400180000001F8020402740294092
:1050B0001F400000004007C039000F0001C0004041
:1050C00020403FC0244024401B8000001F8020401F
:1050D000204020403080000020403FC02040204041
:1050E0001F80000020403FC024402E4030C0000000
:1050F00020403FC024402E00300000000F001080F0
:10510000204022403380020020403FC004000400C1
:105110003FC02040204020403FC0204020400000B1
:105120000060202020203FC02000200020403FC001
:1051300024400B0030C0204020403FC020400040B1
:10514000004000C03FC03C0003C03C003FC0000026
:1051500020403FC00C4023003FC020001F80204063
:10516000204020401F80000020403FC024402400F9
:10517000180000001F802140214020E01FA00000F7
:1051800020403FC02440260019C0004018C02440E1
:105190002440224031800000300020403FC02040A9
:1051A0003000000020003F80004000403F80200091
:1051B00020003E0001C0070038002000380007C072
:1051C0003C0007C038000000204039C0060039C04C
:1051D000204000002000384007C038402000000078
:1051E000304021C02640384020C0000000000000B0
:1051F0007FE0402040200000000070000C00038091
:10520000004000000000402040207FE0000000003F
:1052100000002000400020000000000000100010EE
:1052200000100010001000100000000040000000FE
:1052300000000000000002800540054003C000405F
:1052400020003FC0044004400380000000000380B1
:105250000440044006400000000003800440244055
:105260003FC00040000003800540054003400000AF
:10527000000004401FC0244024402000000002E041
:10528000055005500650042020403FC00440040053
:1052900003C000400000044027C0004000000000A0
:1052A00000100010041027E00000000020403FC064
:1052B0000140070004C00440204020403FC000409F
:1052C0000040000007C0040007C0040003C0000045
:1052D000044007C00440040003C0004000000380F5
:1052E0000440044003800000041007F00450044010
:1052F00003800000000003800440045007F0001009
:10530000044007C002400400040000000000064002
:105310000540054004C00000000004001F80044058
:1053200000400000040007800040044007C0004027
:105330000400070004C0018006000400060001C04C
:10534000070001C006000000044006C0010006C0BE
:10535000044000000410071004E00180060004006F
:105360000000044005C006400440000000000000AA
:1053700004007BE040200000000000000000FFF07F
:1053800000000000000040207BE00400000000005E
:10539000400080004000200020004000000000008D
:1053A00000000000000000000000000000000000FD
:1053B00000001FCC000C00000000000000000800EE
:1053C000300060000800300060000000022003FC94
:1053D0001E20022003FC1E200220000000000E18E8
:1053E00011043FFF10840C78000000000F001084AF
:1053F0000F3800C0077818840078000000780F8408
:1054000010C411240E9800E400840008080068000D
:10541000700000000000000000000000000000001C
:10542000000007E0181820044002000000004002BD
:105430002004181807E000000000000002400240AD
:1054400001800FF0018002400240000000800080D7
:1054500000800FF800800080008000000001000D37
:10546000000E0000000000000000000000000080AE
:105470000080008000800080008000800000000C20
:10548000000C00000000000000000000000000060A
:10549000001800600180060018002000000007F0DE
:1054A000080810041004080807F0000000000804B1
:1054B00008041FFC000400040000000000000E0CA3
:1054C00010141024104411840E0C000000000C185D
:1054D00010041104110412880C700000000000E098
:1054E0000320042408241FFC0024000000001F984F
:1054F000108411041104108810700000000007F0DF
:1055000008881104110418880070000000001C00B5
:10551000100010FC13001C001000000000000E38EA
:1055200011441084108411440E380000000007005C
:10553000088C10441044088807F0000000000000A8
:105540000000030C030C000000000000000000003D
:1055500000010106000000000000000000000080C3
:10556000014002200410080810040000022002205C
:10557000022002200220022002200000000010046D
:1055800008080410022001400080000000000E0006
:105590001200100C106C10800F00000003E00C18BB
:1055A00013E4142417C4082807D000000004003CAA
:1055B00003C41C40074000E4001C000410041FFC4E
:1055C0001104110411040E880070000003E00C188F
:1055D00010041004100410081C10000010041FFC1C
:1055E000100410041004080807F0000010041FFC49
:1055F0001104110417C410040818000010041FFC43
:105600001104110017C010000800000003E00C187E
:105610001004100410441C780040000010041FFC0B
:1056200010840080008010841FFC1004000010040F
:1056300010041FFC1004100400000000000300010F
:10564000100110011FFE10001000000010041FFCCC
:10565000110403801464181C1004000010041FFCC3
:105660001004000400040004000C000010041FFCDF
:105670001F0000FC1F001FFC1004000010041FFC92
:105680000C04030000E010181FFC100007F00808CD
:10569000100410041004080807F0000010041FFC98
:1056A00010841080108010800F00000007F0081890
:1056B00010241024101C080A07F2000010041FFC1C
:1056C0001104110011C011300E0C000400000E1C5A
:1056D00011041084108410441C38000018001000BD
:1056E00010041FFC100410001800000010001FF828
:1056F00010040004000410041FF8100010001E0025
:1057000011E0001C007013801C0010001FC0103C32
:1057100000E01F0000E0103C1FC000001004180C47
:10572000163401C001C01634180C100410001C00FF
:10573000130400FC13041C00100000000804101CDB
:105740001064108413041C041018000000000000F2
:1057500000007FFE400240024002000000003000D6
:105760000C0003800060001C0003000000004002E9
:10577000400240027FFE0000000000000000000028
:105780002000400040004000200000000001000117
:1057900000010001000100010001000100004000C3
:1057A0004000200000000000000000000000009801
:1057B000012401440144014400FC000410001FFCCA
:1057C00000880104010400880070000000000070DF
:1057D000008801040104010400880000000000703A
:1057E00000880104010411081FFC0004000000F8F7
:1057F000014401440144014400C8000000000104C8
:1058000001040FFC1104110411001800000000D65F
:1058100001290129012901C90106000010041FFC0A
:10582000008401000100010400FC000400000104E8
:10583000190419FC0004000400000000000000032B
:1058400000010101190119FE0000000010041FFCF5
:105850000024004001B4010C010400000000100409
:1058600010041FFC0004000400000000010401FCFF
:105870000104010001FC0104010000FC010401FC21
:10588000008401000100010400FC0004000000F895
:10589000010401040104010400F80000010101FFFA
:1058A0000085010401040088007000000000007001
:1058B000008801040104010501FF00010104010445
:1058C00001FC00840104010001800000000000CC04
:1058D000012401240124012401980000000001009A
:1058E000010007F80104010400000000010001F8B4
:1058F000000400040004010801FC00040100018010
:105900000170000C001001600180010001F0010C29
:10591000003001C00030010C01F001000000010462
:10592000018C00740170018C0104000001010181EF
:105930000171000E00180160018001000000018467
:10594000010C013401440184010C0000000000003E
:105950000000000001003EFC400240020000000088
:1059600000000000FFFF00000000000000004002F7
:1059700040023EFC0100000000000000000060004A
:105980008000800040004000200020000000000057
:105990000000000000000000000000000000000007
:1059A00000000000000000000000000000000000F7
:1059B0000000000000000000000000000000000FD8
:1059C00080380FFE380F8038000000000000000013
:1059D00000000000000000000000010000060000C0
:1059E0000C00003800003100000600000C000038F8
:1059F000000030000000000000000000618000672F
:105A0000F807F9800061800061800061800061809A
:105A10000067F807F98000618000000000000000C6
:105A2000000001C0E003E0F00630080418081FFF82
:105A3000FE040E080787F00381E00000000000006C
:105A400001F000060C00040408060C7001F9C00007
:105A50000E00003BE000EC18070808040C180003D7
:105A6000E00000000001E00007F003F818041C0843
:105A700004170807E1D003C0E00023B0003C080091
:105A800020080000100000000000000100003100AC
:105A9000003200001C0000000000000000000000B8
:105AA00000000000000000000000000000000000F6
:105AB0000000000000000000000000007F0001FF67
:105AC000C00780F00C001810000420000200000045
:105AD0000000002000021000040C00180780F001F4
